{
  "abi": [
    {
      "inputs": [
        {
          "internalType": "address",
          "name": "_owner",
          "type": "address"
        },
        {
          "internalType": "address",
          "name": "_consumerDashboardGen",
          "type": "address"
        }
      ],
      "stateMutability": "nonpayable",
      "type": "constructor"
    },
    {
      "inputs": [
        {
          "internalType": "address",
          "name": "protocolAddress",
          "type": "address"
        },
        {
          "internalType": "string",
          "name": "_name",
          "type": "string"
        }
      ],
      "name": "createProtocolWallet",
      "outputs": [],
      "stateMutability": "nonpayable",
      "type": "function"
    },
    {
      "inputs": [
        {
          "internalType": "address",
          "name": "_protocolAddress",
          "type": "address"
        }
      ],
      "name": "getWalletAddress",
      "outputs": [
        {
          "internalType": "address",
          "name": "",
          "type": "address"
        }
      ],
      "stateMutability": "view",
      "type": "function"
    },
    {
      "inputs": [],
      "name": "owner",
      "outputs": [
        {
          "internalType": "address",
          "name": "",
          "type": "address"
        }
      ],
      "stateMutability": "view",
      "type": "function"
    },
    {
      "inputs": [
        {
          "internalType": "address",
          "name": "",
          "type": "address"
        }
      ],
      "name": "protocolOwners",
      "outputs": [
        {
          "internalType": "address",
          "name": "",
          "type": "address"
        }
      ],
      "stateMutability": "view",
      "type": "function"
    },
    {
      "inputs": [
        {
          "internalType": "address",
          "name": "",
          "type": "address"
        }
      ],
      "name": "protocolWallets",
      "outputs": [
        {
          "internalType": "address",
          "name": "",
          "type": "address"
        }
      ],
      "stateMutability": "view",
      "type": "function"
    },
    {
      "inputs": [
        {
          "internalType": "address",
          "name": "_disputeResolutionCenter",
          "type": "address"
        }
      ],
      "name": "setDisputeResolutionCenter",
      "outputs": [],
      "stateMutability": "nonpayable",
      "type": "function"
    }
  ],
  "bytecode": {
    "object": "0x608060405234801561001057600080fd5b50604051611b31380380611b3183398101604081905261002f9161007c565b600280546001600160a01b039384166001600160a01b031991821617909155600480549290931691161790556100af565b80516001600160a01b038116811461007757600080fd5b919050565b6000806040838503121561008f57600080fd5b61009883610060565b91506100a660208401610060565b90509250929050565b611a73806100be6000396000f3fe608060405234801561001057600080fd5b50600436106100625760003560e01c8063086ebf2f146100675780631fd9afa51461007c57806383bcb556146100c45780638da5cb5b146100d7578063db5f051e146100ea578063fe90597814610113575b600080fd5b61007a6100753660046105f0565b61013c565b005b6100a861008a366004610675565b6001600160a01b039081166000908152600160205260409020541690565b6040516001600160a01b03909116815260200160405180910390f35b61007a6100d2366004610675565b61053d565b6002546100a8906001600160a01b031681565b6100a86100f8366004610675565b6000602081905290815260409020546001600160a01b031681565b6100a8610121366004610675565b6001602052600090815260409020546001600160a01b031681565b6003546001600160a01b03166101995760405162461bcd60e51b815260206004820152601f60248201527f446973707574655265736f6c7574696f6e43656e746572206e6f74207365740060448201526064015b60405180910390fd5b336000908152602081905260409020546001600160a01b0316156102185760405162461bcd60e51b815260206004820152603060248201527f596f75206861766520616c7265616479206372656174656420612077616c6c6560448201526f1d08199bdc8818481c1c9bdd1bd8dbdb60821b6064820152608401610190565b6001600160a01b03838116600090815260016020526040902054161561029c5760405162461bcd60e51b815260206004820152603360248201527f412077616c6c657420666f7220746869732070726f746f636f6c2068617320616044820152721b1c9958591e481899595b8818dc99585d1959606a1b6064820152608401610190565b60035460405160009185913391869186916001600160a01b0316906102c0906105cb565b6102ce959493929190610699565b604051809103906000f080156102e15760015b61032d5760405162461bcd60e51b815260206004820152601e60248201527f50726f746f636f6c57616c6c6574206372656174696f6e206661696c656400006044820152606401610190565b90503360009081526020818152604080832080546001600160a01b03808a166001600160a01b031992831681179093559185526001909352908320805485831693169290921790915560045416905b816001600160a01b0316631f7b6d326040518163ffffffff1660e01b8152600401602060405180830381865afa1580156103ba573d6000803e3d6000fd5b505050506040513d601f19601f820116820180604052508101906103de91906106f0565b811015610535576040516351c9081f60e01b8152600481018290526000906001600160a01b038416906351c9081f90602401602060405180830381865afa15801561042d573d6000803e3d6000fd5b505050506040513d601f19601f820116820180604052508101906104519190610709565b6001600160a01b0388811660009081526001602052604090819020549051630ee3a98560e31b8152908216600482015291925082919082169063771d4c2890602401600060405180830381600087803b1580156104ad57600080fd5b505af19250505080156104be575060015b6105205760405162461bcd60e51b815260206004820152602d60248201527f4661696c656420746f206164642070726f746f636f6c20746f20436f6e73756d60448201526c65722044617368626f6172647360981b6064820152608401610190565b5050808061052d90610726565b91505061037c565b505050505050565b6002546000906001600160a01b03163303610556575060015b6001811515146105a85760405162461bcd60e51b815260206004820152601760248201527f54686973206973206e6f7420796f75722077616c6c65740000000000000000006044820152606401610190565b50600380546001600160a01b0319166001600160a01b0392909216919091179055565b6112f08061074e83390190565b6001600160a01b03811681146105ed57600080fd5b50565b60008060006040848603121561060557600080fd5b8335610610816105d8565b9250602084013567ffffffffffffffff8082111561062d57600080fd5b818601915086601f83011261064157600080fd5b81358181111561065057600080fd5b87602082850101111561066257600080fd5b6020830194508093505050509250925092565b60006020828403121561068757600080fd5b8135610692816105d8565b9392505050565b6001600160a01b03868116825285811660208301526080604083018190528201849052600090848660a0850137600083860160a0908101919091529316606083015250601f909201601f1916909101019392505050565b60006020828403121561070257600080fd5b5051919050565b60006020828403121561071b57600080fd5b8151610692816105d8565b60006001820161074657634e487b7160e01b600052601160045260246000fd5b506001019056fe60806040523480156200001157600080fd5b50604051620012f0380380620012f08339810160408190526200003491620000bd565b600080546001600160a01b038087166001600160a01b03199283161790925560018054868416908316179055600280549284169290911691909117905560036200007f838262000259565b505050505062000325565b80516001600160a01b0381168114620000a257600080fd5b919050565b634e487b7160e01b600052604160045260246000fd5b60008060008060808587031215620000d457600080fd5b620000df856200008a565b93506020620000f08187016200008a565b60408701519094506001600160401b03808211156200010e57600080fd5b818801915088601f8301126200012357600080fd5b815181811115620001385762000138620000a7565b604051601f8201601f19908116603f01168101908382118183101715620001635762000163620000a7565b816040528281528b868487010111156200017c57600080fd5b600093505b82841015620001a0578484018601518185018701529285019262000181565b6000868483010152809750505050505050620001bf606086016200008a565b905092959194509250565b600181811c90821680620001df57607f821691505b6020821081036200020057634e487b7160e01b600052602260045260246000fd5b50919050565b601f8211156200025457600081815260208120601f850160051c810160208610156200022f5750805b601f850160051c820191505b8181101562000250578281556001016200023b565b5050505b505050565b81516001600160401b03811115620002755762000275620000a7565b6200028d81620002868454620001ca565b8462000206565b602080601f831160018114620002c55760008415620002ac5750858301515b600019600386901b1c1916600185901b17855562000250565b600085815260208120601f198616915b82811015620002f657888601518255948401946001909101908401620002d5565b5085821015620003155787850151600019600388901b60f8161c191681555b5050505050600190811b01905550565b610fbb80620003356000396000f3fe6080604052600436106100ab5760003560e01c80635cc07076116100645780635cc07076146102715780636b149d87146102b45780637daf798d146102d65780638ce74426146102f8578063b02c43d014610318578063c1d6ba691461033857600080fd5b806306fdde031461017a57806313bb3bd5146101a5578063143d614b146101c75780632e1a7d4d146101f757806350d6c1e81461021757806356575e021461023957600080fd5b366101755760408051606081018252348152336020820190815260058054938301848152600185018255600091909152825160039094027f036b6384b5eca791c62761152d0c79bb0604c104a5fb6f4eb0703f3154bb3db0810194855591517f036b6384b5eca791c62761152d0c79bb0604c104a5fb6f4eb0703f3154bb3db1830180546001600160a01b03929092166001600160a01b0319909216919091179055517f036b6384b5eca791c62761152d0c79bb0604c104a5fb6f4eb0703f3154bb3db290910155005b600080fd5b34801561018657600080fd5b5061018f610358565b60405161019c9190610b85565b60405180910390f35b3480156101b157600080fd5b506101c56101c0366004610bb5565b6103e6565b005b3480156101d357600080fd5b506101e76101e2366004610c8e565b6105e2565b60405161019c9493929190610ca7565b34801561020357600080fd5b506101c5610212366004610c8e565b6106b4565b34801561022357600080fd5b5061022c6108e3565b60405161019c9190610cde565b34801561024557600080fd5b50600254610259906001600160a01b031681565b6040516001600160a01b03909116815260200161019c565b34801561027d57600080fd5b5061029161028c366004610c8e565b610965565b604080519384526001600160a01b0390921660208401529082015260600161019c565b3480156102c057600080fd5b506102c96109a4565b60405161019c9190610d49565b3480156102e257600080fd5b506102eb610a1c565b60405161019c9190610da8565b34801561030457600080fd5b50600054610259906001600160a01b031681565b34801561032457600080fd5b50610291610333366004610c8e565b610b2f565b34801561034457600080fd5b50600154610259906001600160a01b031681565b6003805461036590610e3c565b80601f016020809104026020016040519081016040528092919081815260200182805461039190610e3c565b80156103de5780601f106103b3576101008083540402835291602001916103de565b820191906000526020600020905b8154815290600101906020018083116103c157829003601f168201915b505050505081565b6002546000906001600160a01b031633036103ff575060015b6001811515146104455760405162461bcd60e51b815260206004820152600c60248201526b155b985d5d1a1bdc9a5e995960a21b60448201526064015b60405180910390fd5b604080516080810182528581526001600160a01b03858116602083019081526004805494840185815260608501888152600187018355600083905285517f8a35acfbc15ff81a39ae7d344fd709f28e8600b4aa8c65c6b64bfe7fe36bd19b9790930296870192835592517f8a35acfbc15ff81a39ae7d344fd709f28e8600b4aa8c65c6b64bfe7fe36bd19c870180546001600160a01b031916919095161790935591517f8a35acfbc15ff81a39ae7d344fd709f28e8600b4aa8c65c6b64bfe7fe36bd19d85015551919290917f8a35acfbc15ff81a39ae7d344fd709f28e8600b4aa8c65c6b64bfe7fe36bd19e909101906105409082610ec5565b50849150859050478111156105a35760405162461bcd60e51b815260206004820152602360248201527f496e73756666696369656e742062616c616e636520666f72206368617267656260448201526261636b60e81b606482015260840161043c565b6040516001600160a01b0383169082156108fc029083906000818181858888f193505050501580156105d9573d6000803e3d6000fd5b50505050505050565b600481815481106105f257600080fd5b600091825260209091206004909102018054600182015460028301546003840180549395506001600160a01b0390921693909290919061063190610e3c565b80601f016020809104026020016040519081016040528092919081815260200182805461065d90610e3c565b80156106aa5780601f1061067f576101008083540402835291602001916106aa565b820191906000526020600020905b81548152906001019060200180831161068d57829003601f168201915b5050505050905084565b6001546000906001600160a01b031633036106cd575060015b60018115151461071f5760405162461bcd60e51b815260206004820152601760248201527f54686973206973206e6f7420796f75722077616c6c6574000000000000000000604482015260640161043c565b6000546001600160a01b0316331461078b5760405162461bcd60e51b815260206004820152602960248201527f4f6e6c79207468652070726f746f636f6c2063616e20776974686472617720636044820152681bdb1b185d195c985b60ba1b606482015260840161043c565b60408051606081018252838152600180546001600160a01b039081166020840190815260068054958501868152868501825560009190915293517ff652222313e28459528d920b65115c16c04f3efc82aaedc97be59f3f377c0d3f600390960295860155517ff652222313e28459528d920b65115c16c04f3efc82aaedc97be59f3f377c0d40850180546001600160a01b03191691831691909117905591517ff652222313e28459528d920b65115c16c04f3efc82aaedc97be59f3f377c0d419093019290925590541682478111156108a65760405162461bcd60e51b815260206004820152601b60248201527f596f75206861766520696e73756666696369656e742066756e64730000000000604482015260640161043c565b6040516001600160a01b0383169082156108fc029083906000818181858888f193505050501580156108dc573d6000803e3d6000fd5b5050505050565b60606006805480602002602001604051908101604052809291908181526020016000905b8282101561095c5760008481526020908190206040805160608101825260038602909201805483526001808201546001600160a01b031684860152600290910154918301919091529083529092019101610907565b50505050905090565b6006818154811061097557600080fd5b60009182526020909120600390910201805460018201546002909201549092506001600160a01b039091169083565b60606005805480602002602001604051908101604052809291908181526020016000908282101561095c5760008481526020908190206040805160608101825260038602909201805483526001808201546001600160a01b031684860152600290910154918301919091529083529092019101610907565b60606004805480602002602001604051908101604052809291908181526020016000905b8282101561095c57600084815260209081902060408051608081018252600486029092018054835260018101546001600160a01b031693830193909352600283015490820152600382018054919291606084019190610a9e90610e3c565b80601f0160208091040260200160405190810160405280929190818152602001828054610aca90610e3c565b8015610b175780601f10610aec57610100808354040283529160200191610b17565b820191906000526020600020905b815481529060010190602001808311610afa57829003601f168201915b50505050508152505081526020019060010190610a40565b6005818154811061097557600080fd5b6000815180845260005b81811015610b6557602081850181015186830182015201610b49565b506000602082860101526020601f19601f83011685010191505092915050565b602081526000610b986020830184610b3f565b9392505050565b634e487b7160e01b600052604160045260246000fd5b600080600060608486031215610bca57600080fd5b8335925060208401356001600160a01b0381168114610be857600080fd5b9150604084013567ffffffffffffffff80821115610c0557600080fd5b818601915086601f830112610c1957600080fd5b813581811115610c2b57610c2b610b9f565b604051601f8201601f19908116603f01168101908382118183101715610c5357610c53610b9f565b81604052828152896020848701011115610c6c57600080fd5b8260208601602083013760006020848301015280955050505050509250925092565b600060208284031215610ca057600080fd5b5035919050565b84815260018060a01b0384166020820152826040820152608060608201526000610cd46080830184610b3f565b9695505050505050565b6020808252825182820181905260009190848201906040850190845b81811015610d3d57610d2a838551805182526020808201516001600160a01b031690830152604090810151910152565b9284019260609290920191600101610cfa565b50909695505050505050565b6020808252825182820181905260009190848201906040850190845b81811015610d3d57610d95838551805182526020808201516001600160a01b031690830152604090810151910152565b9284019260609290920191600101610d65565b60006020808301818452808551808352604092508286019150828160051b87010184880160005b83811015610e2e57888303603f19018552815180518452878101516001600160a01b0316888501528681015187850152606090810151608091850182905290610e1a81860183610b3f565b968901969450505090860190600101610dcf565b509098975050505050505050565b600181811c90821680610e5057607f821691505b602082108103610e7057634e487b7160e01b600052602260045260246000fd5b50919050565b601f821115610ec057600081815260208120601f850160051c81016020861015610e9d5750805b601f850160051c820191505b81811015610ebc57828155600101610ea9565b5050505b505050565b815167ffffffffffffffff811115610edf57610edf610b9f565b610ef381610eed8454610e3c565b84610e76565b602080601f831160018114610f285760008415610f105750858301515b600019600386901b1c1916600185901b178555610ebc565b600085815260208120601f198616915b82811015610f5757888601518255948401946001909101908401610f38565b5085821015610f755787850151600019600388901b60f8161c191681555b5050505050600190811b0190555056fea264697066735822122023c05fac07aa62aebf04e66bb9efb72a7eaf569d72ade3b07b14cf38463edb9764736f6c63430008140033a2646970667358221220eecc19ab898de268c812cbfd0c7eec6398ac21968f5895281755c0356eced9af64736f6c63430008140033",
    "linkReferences": {}
  },
  "methodIdentifiers": {
    "createProtocolWallet(address,string)": "086ebf2f",
    "getWalletAddress(address)": "1fd9afa5",
    "owner()": "8da5cb5b",
    "protocolOwners(address)": "db5f051e",
    "protocolWallets(address)": "fe905978",
    "setDisputeResolutionCenter(address)": "83bcb556"
  },
  "id": 6
}