{
  "abi": [
    {
      "inputs": [
        {
          "internalType": "address",
          "name": "_owner",
          "type": "address"
        },
        {
          "internalType": "address",
          "name": "_lottery",
          "type": "address"
        }
      ],
      "stateMutability": "nonpayable",
      "type": "constructor"
    },
    {
      "inputs": [
        {
          "internalType": "uint256",
          "name": "vote",
          "type": "uint256"
        }
      ],
      "name": "castVote",
      "outputs": [],
      "stateMutability": "nonpayable",
      "type": "function"
    },
    {
      "inputs": [],
      "name": "owner",
      "outputs": [
        {
          "internalType": "address",
          "name": "",
          "type": "address"
        }
      ],
      "stateMutability": "view",
      "type": "function"
    },
    {
      "stateMutability": "payable",
      "type": "receive"
    }
  ],
  "bytecode": {
    "object": "0x608060405234801561001057600080fd5b5060405161035138038061035183398101604081905261002f9161007c565b600080546001600160a01b039384166001600160a01b031991821617909155600180549290931691161790556100af565b80516001600160a01b038116811461007757600080fd5b919050565b6000806040838503121561008f57600080fd5b61009883610060565b91506100a660208401610060565b90509250929050565b610293806100be6000396000f3fe60806040526004361061002d5760003560e01c80633eb76b9c146100395780638da5cb5b1461005b57600080fd5b3661003457005b600080fd5b34801561004557600080fd5b50610059610054366004610219565b610097565b005b34801561006757600080fd5b5060005461007b906001600160a01b031681565b6040516001600160a01b03909116815260200160405180910390f35b6000546001600160a01b031633146100f65760405162461bcd60e51b815260206004820152601e60248201527f4f6e6c7920746865206f776e65722063616e2063617374206120766f7465000060448201526064015b60405180910390fd5b8015806101035750806001145b61014f5760405162461bcd60e51b815260206004820152601a60248201527f566f7465206d757374206265206569746865722030206f72203100000000000060448201526064016100ed565b600061015f82633b9aca00610232565b9050804710156101b15760405162461bcd60e51b815260206004820152601f60248201527f4e6f7420656e6f7567682062616c616e636520746f206361737420766f74650060448201526064016100ed565b6001546040805163688b88d160e11b815290516001600160a01b0390921691829163d11711a291859160048082019260009290919082900301818588803b1580156101fb57600080fd5b505af115801561020f573d6000803e3d6000fd5b5050505050505050565b60006020828403121561022b57600080fd5b5035919050565b808202811582820484141761025757634e487b7160e01b600052601160045260246000fd5b9291505056fea2646970667358221220dc12572c2207d44ad455d6775d6012caa912d88daa533615d734b4a021d5b80f64736f6c63430008140033",
    "linkReferences": {}
  },
  "methodIdentifiers": {
    "castVote(uint256)": "3eb76b9c",
    "owner()": "8da5cb5b"
  },
  "id": 3
}