{
  "abi": [
    {
      "inputs": [
        {
          "internalType": "address",
          "name": "_owner",
          "type": "address"
        },
        {
          "internalType": "address",
          "name": "_consumerDashboardGen",
          "type": "address"
        },
        {
          "internalType": "address",
          "name": "_protocolWalletGen",
          "type": "address"
        }
      ],
      "stateMutability": "nonpayable",
      "type": "constructor"
    },
    {
      "inputs": [
        {
          "internalType": "address",
          "name": "_sc",
          "type": "address"
        },
        {
          "internalType": "address",
          "name": "_owner",
          "type": "address"
        },
        {
          "internalType": "address",
          "name": "_to",
          "type": "address"
        },
        {
          "internalType": "uint256",
          "name": "_amount",
          "type": "uint256"
        },
        {
          "internalType": "string",
          "name": "_output",
          "type": "string"
        },
        {
          "internalType": "uint256",
          "name": "_id",
          "type": "uint256"
        },
        {
          "internalType": "uint256",
          "name": "_cid",
          "type": "uint256"
        },
        {
          "internalType": "bool",
          "name": "_win",
          "type": "bool"
        },
        {
          "internalType": "bool",
          "name": "_lose",
          "type": "bool"
        },
        {
          "internalType": "bool",
          "name": "_undecided",
          "type": "bool"
        }
      ],
      "name": "addDisputeToCenter",
      "outputs": [],
      "stateMutability": "nonpayable",
      "type": "function"
    },
    {
      "inputs": [],
      "name": "createJurorWallet",
      "outputs": [],
      "stateMutability": "nonpayable",
      "type": "function"
    },
    {
      "inputs": [
        {
          "internalType": "uint256",
          "name": "",
          "type": "uint256"
        }
      ],
      "name": "disputes",
      "outputs": [
        {
          "internalType": "address",
          "name": "sc",
          "type": "address"
        },
        {
          "internalType": "address",
          "name": "owner",
          "type": "address"
        },
        {
          "internalType": "address",
          "name": "to",
          "type": "address"
        },
        {
          "internalType": "uint256",
          "name": "amount",
          "type": "uint256"
        },
        {
          "internalType": "string",
          "name": "output",
          "type": "string"
        },
        {
          "internalType": "uint256",
          "name": "id",
          "type": "uint256"
        },
        {
          "internalType": "uint256",
          "name": "cid",
          "type": "uint256"
        },
        {
          "components": [
            {
              "internalType": "bool",
              "name": "win",
              "type": "bool"
            },
            {
              "internalType": "bool",
              "name": "lose",
              "type": "bool"
            },
            {
              "internalType": "bool",
              "name": "undecided",
              "type": "bool"
            }
          ],
          "internalType": "struct DisputeResolutionCenter.Decision",
          "name": "decision",
          "type": "tuple"
        }
      ],
      "stateMutability": "view",
      "type": "function"
    },
    {
      "inputs": [],
      "name": "disputesLength",
      "outputs": [
        {
          "internalType": "uint256",
          "name": "",
          "type": "uint256"
        }
      ],
      "stateMutability": "view",
      "type": "function"
    },
    {
      "inputs": [
        {
          "internalType": "address",
          "name": "",
          "type": "address"
        }
      ],
      "name": "jurors",
      "outputs": [
        {
          "internalType": "address",
          "name": "",
          "type": "address"
        }
      ],
      "stateMutability": "view",
      "type": "function"
    },
    {
      "inputs": [],
      "name": "owner",
      "outputs": [
        {
          "internalType": "address",
          "name": "",
          "type": "address"
        }
      ],
      "stateMutability": "view",
      "type": "function"
    },
    {
      "inputs": [
        {
          "internalType": "address",
          "name": "_lottery",
          "type": "address"
        }
      ],
      "name": "setDisputeResolutionCenter",
      "outputs": [],
      "stateMutability": "nonpayable",
      "type": "function"
    },
    {
      "inputs": [
        {
          "internalType": "bool",
          "name": "_win",
          "type": "bool"
        },
        {
          "internalType": "bool",
          "name": "_lose",
          "type": "bool"
        },
        {
          "internalType": "uint256",
          "name": "_cid",
          "type": "uint256"
        }
      ],
      "name": "updateDisputeResult",
      "outputs": [],
      "stateMutability": "nonpayable",
      "type": "function"
    }
  ],
  "bytecode": {
    "object": "0x608060405234801561001057600080fd5b5060405161144238038061144283398101604081905261002f91610090565b600080546001600160a01b039384166001600160a01b0319918216179091556001805492841692821692909217909155600280549390921692169190911790556100d3565b80516001600160a01b038116811461008b57600080fd5b919050565b6000806000606084860312156100a557600080fd5b6100ae84610074565b92506100bc60208501610074565b91506100ca60408501610074565b90509250925092565b611360806100e26000396000f3fe608060405234801561001057600080fd5b50600436106100885760003560e01c806383bcb5561161005b57806383bcb556146100f85780638da5cb5b1461010b578063ccb00d9714610136578063dca5f6b01461013e57600080fd5b806308a9baa51461008d57806354a3efa4146100a2578063564a565d146100be57806365c4d52b146100e5575b600080fd5b6100a061009b366004610b1b565b610167565b005b6100ab60065481565b6040519081526020015b60405180910390f35b6100d16100cc366004610c62565b610343565b6040516100b5989796959493929190610c7b565b6100a06100f3366004610d34565b610460565b6100a0610106366004610d70565b610883565b60025461011e906001600160a01b031681565b6040516001600160a01b0390911681526020016100b5565b6100a061090b565b61011e61014c366004610d70565b6004602052600090815260409020546001600160a01b031681565b6006805490600061017783610d94565b919050555060056040518061012001604052808c6001600160a01b031681526020018b6001600160a01b031681526020018a6001600160a01b031681526020018981526020018881526020018781526020018681526020016040518060600160405280871515815260200186151581526020018515158152508152602001600067ffffffffffffffff81111561020f5761020f610af0565b604051908082528060200260200182016040528015610238578160200160208202803683370190505b5090528154600180820184556000938452602093849020835160099093020180546001600160a01b03199081166001600160a01b03948516178255948401519181018054861692841692909217909155604083015160028201805490951692169190911790925560608101516003830155608081015190919060048201906102c09082610e44565b5060a0820151600582015560c0820151600682015560e0820151805160078301805460208085015160409095015161ffff1990921693151561ff0019169390931761010094151585021762ff0000191662010000911515919091021790559083015180516103349260088501920190610a51565b50505050505050505050505050565b6005818154811061035357600080fd5b6000918252602090912060099091020180546001820154600283015460038401546004850180546001600160a01b039586169750938516959290941693909261039b90610dbb565b80601f01602080910402602001604051908101604052809291908181526020018280546103c790610dbb565b80156104145780601f106103e957610100808354040283529160200191610414565b820191906000526020600020905b8154815290600101906020018083116103f757829003601f168201915b50505050600583015460068401546040805160608101825260079096015460ff808216151588526101008204811615156020890152620100009091041615159086015292939092915088565b6003546000906001600160a01b03163303610479575060015b6001811515146104ca5760405162461bcd60e51b8152602060048201526017602482015276151a1a5cc81a5cc81b9bdd081e5bdd5c881dd85b1b195d604a1b60448201526064015b60405180910390fd5b600582815481106104dd576104dd610f04565b600091825260209091206009909102016007015462010000900460ff16151560011461054b5760405162461bcd60e51b815260206004820152601860248201527f6469737075746520616c7265616479207265736f6c766564000000000000000060448201526064016104c1565b836005838154811061055f5761055f610f04565b906000526020600020906009020160070160000160006101000a81548160ff021916908315150217905550826005838154811061059e5761059e610f04565b60009182526020822060076009909202010180549215156101000261ff00199093169290921790915560058054849081106105db576105db610f04565b6000918252602082206007600990920201018054921515620100000262ff00001990931692909217909155600580548490811061061a5761061a610f04565b6000918252602090912060099091020154600580546001600160a01b0390921692508291630eb3d6bb91908690811061065557610655610f04565b600091825260208220600560099092020101546040516001600160e01b031960e085901b1681526004810191909152881515602482015287151560448201526064810191909152608401600060405180830381600087803b1580156106b957600080fd5b505af11580156106cd573d6000803e3d6000fd5b5050505084151560011480156106e1575083155b1561087c57600154600580546001600160a01b0390921691600091839163fe90597891908890811061071557610715610f04565b600091825260209091206009909102016002015460405160e083901b6001600160e01b03191681526001600160a01b039091166004820152602401602060405180830381865afa15801561076d573d6000803e3d6000fd5b505050506040513d601f19601f820116820180604052508101906107919190610f1a565b90506000819050806001600160a01b03166313bb3bd5600588815481106107ba576107ba610f04565b906000526020600020906009020160030154600589815481106107df576107df610f04565b906000526020600020906009020160010160009054906101000a90046001600160a01b031660058a8154811061081757610817610f04565b90600052602060002090600902016004016040518463ffffffff1660e01b815260040161084693929190610f37565b600060405180830381600087803b15801561086057600080fd5b505af1158015610874573d6000803e3d6000fd5b505050505050505b5050505050565b6002546000906001600160a01b0316330361089c575060015b6001811515146108e85760405162461bcd60e51b8152602060048201526017602482015276151a1a5cc81a5cc81b9bdd081e5bdd5c881dd85b1b195d604a1b60448201526064016104c1565b50600380546001600160a01b0319166001600160a01b0392909216919091179055565b336000908152600460205260409020546001600160a01b0316156109835760405162461bcd60e51b815260206004820152602960248201527f596f75206861766520616c726561647920637265617465642061207374616b696044820152681b99c81dd85b1b195d60ba1b60648201526084016104c1565b6003546001600160a01b03166109cd5760405162461bcd60e51b815260206004820152600f60248201526e131bdd1d195c9e481b9bdd081cd95d608a1b60448201526064016104c1565b60035460405160009133916001600160a01b03909116906109ed90610ab6565b6001600160a01b03928316815291166020820152604001604051809103906000f080158015610a20573d6000803e3d6000fd5b5033600090815260046020526040902080546001600160a01b0319166001600160a01b039290921691909117905550565b828054828255906000526020600020908101928215610aa6579160200282015b82811115610aa657825182546001600160a01b0319166001600160a01b03909116178255602090920191600190910190610a71565b50610ab2929150610ac3565b5090565b61035180610fda83390190565b5b80821115610ab25760008155600101610ac4565b6001600160a01b0381168114610aed57600080fd5b50565b634e487b7160e01b600052604160045260246000fd5b80358015158114610b1657600080fd5b919050565b6000806000806000806000806000806101408b8d031215610b3b57600080fd5b610b458b35610ad8565b8a359950610b5660208c0135610ad8565b60208b01359850610b6a60408c0135610ad8565b60408b0135975060608b0135965067ffffffffffffffff8060808d01351115610b9257600080fd5b60808c01358c018d601f820112610ba857600080fd5b8181351115610bb957610bb9610af0565b6040518135601f01601f19908116603f01168101908382118183101715610be257610be2610af0565b81604052823581528f602084358501011115610bfd57600080fd5b8235602084016020830137600060208435830101528099505050505060a08b0135945060c08b01359350610c3360e08c01610b06565b9250610c426101008c01610b06565b9150610c516101208c01610b06565b90509295989b9194979a5092959850565b600060208284031215610c7457600080fd5b5035919050565b600061014060018060a01b03808c1684526020818c1681860152818b166040860152896060860152826080860152885191508183860152600092505b81831015610cd657888301810151858401610160015291820191610cb7565b506101609150600082828601015281601f19601f830116850101925050508460a08301528360c0830152610d2760e08301848051151582526020808201511515908301526040908101511515910152565b9998505050505050505050565b600080600060608486031215610d4957600080fd5b610d5284610b06565b9250610d6060208501610b06565b9150604084013590509250925092565b600060208284031215610d8257600080fd5b8135610d8d81610ad8565b9392505050565b600060018201610db457634e487b7160e01b600052601160045260246000fd5b5060010190565b600181811c90821680610dcf57607f821691505b602082108103610def57634e487b7160e01b600052602260045260246000fd5b50919050565b601f821115610e3f57600081815260208120601f850160051c81016020861015610e1c5750805b601f850160051c820191505b81811015610e3b57828155600101610e28565b5050505b505050565b815167ffffffffffffffff811115610e5e57610e5e610af0565b610e7281610e6c8454610dbb565b84610df5565b602080601f831160018114610ea75760008415610e8f5750858301515b600019600386901b1c1916600185901b178555610e3b565b600085815260208120601f198616915b82811015610ed657888601518255948401946001909101908401610eb7565b5085821015610ef45787850151600019600388901b60f8161c191681555b5050505050600190811b01905550565b634e487b7160e01b600052603260045260246000fd5b600060208284031215610f2c57600080fd5b8151610d8d81610ad8565b8381526000602060018060a01b038516818401526060604084015260008454610f5f81610dbb565b8060608701526080600180841660008114610f815760018114610f9b57610fc9565b60ff1985168984015283151560051b890183019550610fc9565b896000528660002060005b85811015610fc15781548b8201860152908301908801610fa6565b8a0184019650505b50939a995050505050505050505056fe608060405234801561001057600080fd5b5060405161035138038061035183398101604081905261002f9161007c565b600080546001600160a01b039384166001600160a01b031991821617909155600180549290931691161790556100af565b80516001600160a01b038116811461007757600080fd5b919050565b6000806040838503121561008f57600080fd5b61009883610060565b91506100a660208401610060565b90509250929050565b610293806100be6000396000f3fe60806040526004361061002d5760003560e01c80633eb76b9c146100395780638da5cb5b1461005b57600080fd5b3661003457005b600080fd5b34801561004557600080fd5b50610059610054366004610219565b610097565b005b34801561006757600080fd5b5060005461007b906001600160a01b031681565b6040516001600160a01b03909116815260200160405180910390f35b6000546001600160a01b031633146100f65760405162461bcd60e51b815260206004820152601e60248201527f4f6e6c7920746865206f776e65722063616e2063617374206120766f7465000060448201526064015b60405180910390fd5b8015806101035750806001145b61014f5760405162461bcd60e51b815260206004820152601a60248201527f566f7465206d757374206265206569746865722030206f72203100000000000060448201526064016100ed565b600061015f82633b9aca00610232565b9050804710156101b15760405162461bcd60e51b815260206004820152601f60248201527f4e6f7420656e6f7567682062616c616e636520746f206361737420766f74650060448201526064016100ed565b6001546040805163688b88d160e11b815290516001600160a01b0390921691829163d11711a291859160048082019260009290919082900301818588803b1580156101fb57600080fd5b505af115801561020f573d6000803e3d6000fd5b5050505050505050565b60006020828403121561022b57600080fd5b5035919050565b808202811582820484141761025757634e487b7160e01b600052601160045260246000fd5b9291505056fea2646970667358221220dc12572c2207d44ad455d6775d6012caa912d88daa533615d734b4a021d5b80f64736f6c63430008140033a26469706673582212200a7d54f2ee58b7d4367edafcff8269ad2ecf05b7a838c924e18eac313164f0f364736f6c63430008140033",
    "linkReferences": {}
  },
  "methodIdentifiers": {
    "addDisputeToCenter(address,address,address,uint256,string,uint256,uint256,bool,bool,bool)": "08a9baa5",
    "createJurorWallet()": "ccb00d97",
    "disputes(uint256)": "564a565d",
    "disputesLength()": "54a3efa4",
    "jurors(address)": "dca5f6b0",
    "owner()": "8da5cb5b",
    "setDisputeResolutionCenter(address)": "83bcb556",
    "updateDisputeResult(bool,bool,uint256)": "65c4d52b"
  },
  "id": 2
}