{
  "abi": [
    {
      "inputs": [
        {
          "internalType": "address",
          "name": "_owner",
          "type": "address"
        }
      ],
      "stateMutability": "nonpayable",
      "type": "constructor"
    },
    {
      "inputs": [
        {
          "internalType": "uint256",
          "name": "",
          "type": "uint256"
        }
      ],
      "name": "consumerDashboardAddress",
      "outputs": [
        {
          "internalType": "address",
          "name": "",
          "type": "address"
        }
      ],
      "stateMutability": "view",
      "type": "function"
    },
    {
      "inputs": [
        {
          "internalType": "address",
          "name": "",
          "type": "address"
        }
      ],
      "name": "consumers",
      "outputs": [
        {
          "internalType": "address",
          "name": "",
          "type": "address"
        }
      ],
      "stateMutability": "view",
      "type": "function"
    },
    {
      "inputs": [],
      "name": "createDashboard",
      "outputs": [],
      "stateMutability": "nonpayable",
      "type": "function"
    },
    {
      "inputs": [],
      "name": "getDashboardAddress",
      "outputs": [
        {
          "internalType": "address",
          "name": "",
          "type": "address"
        }
      ],
      "stateMutability": "view",
      "type": "function"
    },
    {
      "inputs": [],
      "name": "length",
      "outputs": [
        {
          "internalType": "uint256",
          "name": "",
          "type": "uint256"
        }
      ],
      "stateMutability": "view",
      "type": "function"
    },
    {
      "inputs": [
        {
          "internalType": "address",
          "name": "_disputeResolutionCenter",
          "type": "address"
        }
      ],
      "name": "setDisputeResolutionCenter",
      "outputs": [],
      "stateMutability": "nonpayable",
      "type": "function"
    },
    {
      "inputs": [
        {
          "internalType": "address",
          "name": "_protocolWalletGen",
          "type": "address"
        }
      ],
      "name": "setProtocolWalletGen",
      "outputs": [],
      "stateMutability": "nonpayable",
      "type": "function"
    }
  ],
  "bytecode": {
    "object": "0x608060405234801561001057600080fd5b50604051611ea1380380611ea183398101604081905261002f91610054565b600380546001600160a01b0319166001600160a01b0392909216919091179055610084565b60006020828403121561006657600080fd5b81516001600160a01b038116811461007d57600080fd5b9392505050565b611e0e806100936000396000f3fe608060405234801561001057600080fd5b506004361061007d5760003560e01c80631f7b6d321161005b5780631f7b6d32146100da57806351c9081f146100f157806383bcb55614610104578063c342bf731461011757600080fd5b806303e82d4614610082578063042b1e6c146100a75780630bf53668146100b1575b600080fd5b61008a61012a565b6040516001600160a01b0390911681526020015b60405180910390f35b6100af6101bd565b005b61008a6100bf3660046104f7565b6000602081905290815260409020546001600160a01b031681565b6100e360025481565b60405190815260200161009e565b61008a6100ff366004610527565b6103b0565b6100af6101123660046104f7565b6103da565b6100af6101253660046104f7565b610462565b336000908152602081905260408120546001600160a01b03166101a05760405162461bcd60e51b8152602060048201526024808201527f596f752068617665206e6f74206372656174656420612064617368626f617264604482015263081e595d60e21b60648201526084015b60405180910390fd5b50336000908152602081905260409020546001600160a01b031690565b336000908152602081905260409020546001600160a01b03161561022f5760405162461bcd60e51b8152602060048201526024808201527f596f75206861766520616c7265616479206372656174656420612064617368626044820152631bd85c9960e21b6064820152608401610197565b6004546001600160a01b03166102875760405162461bcd60e51b815260206004820152601f60248201527f446973707574655265736f6c7574696f6e43656e746572206e6f7420736574006044820152606401610197565b6005546001600160a01b03166102df5760405162461bcd60e51b815260206004820152601960248201527f50726f746f636f6c57616c6c657447656e206e6f7420736574000000000000006044820152606401610197565b60045460055460405160009233926001600160a01b0391821692911690610305906104ea565b6001600160a01b03938416815291831660208301529091166040820152606001604051809103906000f080158015610341573d6000803e3d6000fd5b5033600090815260208190526040812080546001600160a01b039093166001600160a01b03199384168117909155600180548082018255928190527fb10e2d527612073b26eecdfd717e6a320cf44b4afac2b0732d9fcbe2b7fa0cf69092018054909316179091555460025550565b600181815481106103c057600080fd5b6000918252602090912001546001600160a01b0316905081565b6003546000906001600160a01b031633036103f3575060015b60018115151461043f5760405162461bcd60e51b8152602060048201526017602482015276151a1a5cc81a5cc81b9bdd081e5bdd5c881dd85b1b195d604a1b6044820152606401610197565b50600480546001600160a01b0319166001600160a01b0392909216919091179055565b6003546000906001600160a01b0316330361047b575060015b6001811515146104c75760405162461bcd60e51b8152602060048201526017602482015276151a1a5cc81a5cc81b9bdd081e5bdd5c881dd85b1b195d604a1b6044820152606401610197565b50600580546001600160a01b0319166001600160a01b0392909216919091179055565b6118988061054183390190565b60006020828403121561050957600080fd5b81356001600160a01b038116811461052057600080fd5b9392505050565b60006020828403121561053957600080fd5b503591905056fe60806040523480156200001157600080fd5b506040516200189838038062001898833981016040819052620000349162000094565b600080546001600160a01b039485166001600160a01b031991821617909155600180549385169382169390931790925560028054919093169116179055620000de565b80516001600160a01b03811681146200008f57600080fd5b919050565b600080600060608486031215620000aa57600080fd5b620000b58462000077565b9250620000c56020850162000077565b9150620000d56040850162000077565b90509250925092565b6117aa80620000ee6000396000f3fe608060405234801561001057600080fd5b506004361061009e5760003560e01c8063771d4c2811610066578063771d4c28146101045780638c396220146101175780638da5cb5b1461013b578063b1ca72a614610166578063f434bb681461017b57600080fd5b80630eb3d6bb146100a35780631a6513f7146100b85780633b9390cc146100cb578063478674cc146100de57806359705f81146100e6575b600080fd5b6100b66100b1366004611055565b610190565b005b6100b66100c6366004611129565b610371565b6100b66100d93660046111c5565b61062e565b6100b66107ea565b6100ee610947565b6040516100fb919061120b565b60405180910390f35b6100b6610112366004611285565b6109e0565b61012a6101253660046112a9565b610b95565b6040516100fb959493929190611312565b60005461014e906001600160a01b031681565b6040516001600160a01b0390911681526020016100fb565b61016e610c6e565b6040516100fb9190611355565b610183610dcd565b6040516100fb9190611423565b6001546000906001600160a01b031633036101a9575060015b6001811515146101ef5760405162461bcd60e51b815260206004820152600c60248201526b155b985d5d1a1bdc9a5e995960a21b60448201526064015b60405180910390fd5b60048581548110610202576102026114b7565b600091825260209091206006909102016005015462010000900460ff1615156001146102705760405162461bcd60e51b815260206004820152601860248201527f4469737075746520616c7265616479207265736f6c766564000000000000000060448201526064016101e6565b6004548511156102af5760405162461bcd60e51b815260206004820152600a602482015269125b9d985b1a5908125960b21b60448201526064016101e6565b81600486815481106102c3576102c36114b7565b906000526020600020906006020160050160000160026101000a81548160ff0219169083151502179055508360048681548110610302576103026114b7565b906000526020600020906006020160050160000160006101000a81548160ff0219169083151502179055508260048681548110610341576103416114b7565b6000918252602090912060056006909202010180549115156101000261ff00199092169190911790555050505050565b600080546001600160a01b03163303610388575060015b6001811515146103aa5760405162461bcd60e51b81526004016101e6906114cd565b60015460408051631528fbe960e21b815290516001600160a01b039092169160009183916354a3efa4916004808201926020929091908290030181865afa1580156103f9573d6000803e3d6000fd5b505050506040513d601f19601f8201168201806040525081019061041d9190611504565b60008054600480546040516308a9baa560e01b81529495506001600160a01b03808816956308a9baa5956104659530959316938e938d938f938c92909182916001910161151d565b600060405180830381600087803b15801561047f57600080fd5b505af1158015610493573d6000803e3d6000fd5b50506040805160c081018252600080546001600160a01b0390811683528b811660208085019182528486018c815260608087018f81526004805460808a018190528a519384018b5288845294830188905260019983018a905260a08901929092529783018155909452845160069091027f8a35acfbc15ff81a39ae7d344fd709f28e8600b4aa8c65c6b64bfe7fe36bd19b810180549285166001600160a01b031993841617815592517f8a35acfbc15ff81a39ae7d344fd709f28e8600b4aa8c65c6b64bfe7fe36bd19c820180549190951692169190911790925591517f8a35acfbc15ff81a39ae7d344fd709f28e8600b4aa8c65c6b64bfe7fe36bd19d820155925191945092507f8a35acfbc15ff81a39ae7d344fd709f28e8600b4aa8c65c6b64bfe7fe36bd19e909101906105ca9082611616565b506080820151600482015560a09091015180516005909201805460208301516040909301511515620100000262ff0000199315156101000261ff00199515159590951661ffff19909216919091179390931791909116919091179055505050505050565b600080546001600160a01b03163303610645575060015b6001811515146106675760405162461bcd60e51b81526004016101e6906114cd565b6001600160a01b03851633146106bf5760405162461bcd60e51b815260206004820152601c60248201527f54686973206973206e6f7420796f7572207472616e73616374696f6e0000000060448201526064016101e6565b506040805160a0810182526001600160a01b03958616815293851660208501908152908401928352606084019182526003805460808601818152600182018355600092909252945160059095027fc2575a0e9e593c00f959f8c92f12db2869c3395a3b0502d05e2516446f71f85b810180549688166001600160a01b031997881617905591517fc2575a0e9e593c00f959f8c92f12db2869c3395a3b0502d05e2516446f71f85c830180549190971695169490941790945590517fc2575a0e9e593c00f959f8c92f12db2869c3395a3b0502d05e2516446f71f85d840155517fc2575a0e9e593c00f959f8c92f12db2869c3395a3b0502d05e2516446f71f85e830155517fc2575a0e9e593c00f959f8c92f12db2869c3395a3b0502d05e2516446f71f85f90910155565b600080546001600160a01b03163303610801575060015b6001811515146108235760405162461bcd60e51b81526004016101e6906114cd565b60005b60055481101561094357600060058281548110610845576108456114b7565b60009182526020909120600590910201546001600160a01b0316319050606481106108cf57806005838154811061087e5761087e6114b7565b9060005260206000209060050201600201819055506001600583815481106108a8576108a86114b7565b60009182526020909120600590910201600401805460ff1916911515919091179055610930565b80600583815481106108e3576108e36114b7565b90600052602060002090600502016002018190555060006005838154811061090d5761090d6114b7565b60009182526020909120600590910201600401805460ff19169115159190911790555b508061093b816116d6565b915050610826565b5050565b60606003805480602002602001604051908101604052809291908181526020016000905b828210156109d75760008481526020908190206040805160a0810182526005860290920180546001600160a01b0390811684526001808301549091168486015260028201549284019290925260038101546060840152600401546080830152908352909201910161096b565b50505050905090565b6002546000906001600160a01b031633036109f9575060015b600181151514610a3a5760405162461bcd60e51b815260206004820152600c60248201526b155b985d5d1a1bdc9a5e995960a21b60448201526064016101e6565b60008290506000816001600160a01b03166306fdde036040518163ffffffff1660e01b8152600401600060405180830381865afa158015610a7f573d6000803e3d6000fd5b505050506040513d6000823e601f3d908101601f19168201604052610aa791908101906116fd565b6040805160a0810182526001600160a01b038088168252602082018481526064938301939093526005805460608401819052600060808501819052600182018355829052835191027f036b6384b5eca791c62761152d0c79bb0604c104a5fb6f4eb0703f3154bb3db081018054929093166001600160a01b03199092169190911782559251939450909290917f036b6384b5eca791c62761152d0c79bb0604c104a5fb6f4eb0703f3154bb3db10190610b609082611616565b5060408201516002820155606082015160038201556080909101516004909101805460ff191691151591909117905550505050565b60058181548110610ba557600080fd5b6000918252602090912060059091020180546001820180546001600160a01b03909216935090610bd49061158d565b80601f0160208091040260200160405190810160405280929190818152602001828054610c009061158d565b8015610c4d5780601f10610c2257610100808354040283529160200191610c4d565b820191906000526020600020905b815481529060010190602001808311610c3057829003601f168201915b50505050600283015460038401546004909401549293909290915060ff1685565b60606004805480602002602001604051908101604052809291908181526020016000905b828210156109d75760008481526020908190206040805160c0810182526006860290920180546001600160a01b03908116845260018201541693830193909352600283015490820152600382018054919291606084019190610cf39061158d565b80601f0160208091040260200160405190810160405280929190818152602001828054610d1f9061158d565b8015610d6c5780601f10610d4157610100808354040283529160200191610d6c565b820191906000526020600020905b815481529060010190602001808311610d4f57829003601f168201915b505050918352505060048201546020808301919091526040805160608101825260059094015460ff80821615158652610100820481161515868501526201000090910416151584820152909101919091529082526001929092019101610c92565b60606000805b600554811015610e305760058181548110610df057610df06114b7565b600091825260209091206004600590920201015460ff161515600103610e1e5781610e1a816116d6565b9250505b80610e28816116d6565b915050610dd3565b5060008167ffffffffffffffff811115610e4c57610e4c6110ba565b604051908082528060200260200182016040528015610eba57816020015b610ea76040518060a0016040528060006001600160a01b031681526020016060815260200160008152602001600081526020016000151581525090565b815260200190600190039081610e6a5790505b5090506000805b6005548110156110375760058181548110610ede57610ede6114b7565b600091825260209091206004600590920201015460ff1615156001036110255760058181548110610f1157610f116114b7565b60009182526020918290206040805160a0810190915260059092020180546001600160a01b031682526001810180549293919291840191610f519061158d565b80601f0160208091040260200160405190810160405280929190818152602001828054610f7d9061158d565b8015610fca5780601f10610f9f57610100808354040283529160200191610fca565b820191906000526020600020905b815481529060010190602001808311610fad57829003601f168201915b5050509183525050600282015460208201526003820154604082015260049091015460ff161515606090910152835184908490811061100b5761100b6114b7565b60200260200101819052508180611021906116d6565b9250505b8061102f816116d6565b915050610ec1565b50909392505050565b8035801515811461105057600080fd5b919050565b6000806000806080858703121561106b57600080fd5b8435935061107b60208601611040565b925061108960408601611040565b915061109760608601611040565b905092959194509250565b6001600160a01b03811681146110b757600080fd5b50565b634e487b7160e01b600052604160045260246000fd5b604051601f8201601f1916810167ffffffffffffffff811182821017156110f9576110f96110ba565b604052919050565b600067ffffffffffffffff82111561111b5761111b6110ba565b50601f01601f191660200190565b60008060006060848603121561113e57600080fd5b8335611149816110a2565b9250602084013567ffffffffffffffff81111561116557600080fd5b8401601f8101861361117657600080fd5b803561118961118482611101565b6110d0565b81815287602083850101111561119e57600080fd5b81602084016020830137600060208383010152809450505050604084013590509250925092565b600080600080608085870312156111db57600080fd5b84356111e6816110a2565b935060208501356111f6816110a2565b93969395505050506040820135916060013590565b602080825282518282018190526000919060409081850190868401855b8281101561127857815180516001600160a01b0390811686528782015116878601528581015186860152606080820151908601526080908101519085015260a09093019290850190600101611228565b5091979650505050505050565b60006020828403121561129757600080fd5b81356112a2816110a2565b9392505050565b6000602082840312156112bb57600080fd5b5035919050565b60005b838110156112dd5781810151838201526020016112c5565b50506000910152565b600081518084526112fe8160208601602086016112c2565b601f01601f19169290920160200192915050565b6001600160a01b038616815260a060208201819052600090611336908301876112e6565b6040830195909552506060810192909252151560809091015292915050565b60006020808301818452808551808352604092508286019150828160051b87010184880160005b8381101561141557888303603f19018552815180516001600160a01b039081168552888201511688850152868101518785015260608082015161010082870181905291906113cc838801826112e6565b6080858101519089015260a09485015180511515958901959095528b850151151560c0890152938a0151151560e09097019690965250509487019492509086019060010161137c565b509098975050505050505050565b60006020808301818452808551808352604092508286019150828160051b87010184880160005b8381101561141557888303603f19018552815180516001600160a01b031684528781015160a089860181905290611483828701826112e6565b838a0151878b015260608085015190880152608093840151151593909601929092525050938601939086019060010161144a565b634e487b7160e01b600052603260045260246000fd5b60208082526017908201527f54686973206973206e6f7420796f75722077616c6c6574000000000000000000604082015260600190565b60006020828403121561151657600080fd5b5051919050565b6001600160a01b038b811682528a811660208301528916604082015260608101889052610140608082018190526000906115598382018a6112e6565b60a0840198909852505060c081019490945291151560e0840152151561010083015215156101209091015295945050505050565b600181811c908216806115a157607f821691505b6020821081036115c157634e487b7160e01b600052602260045260246000fd5b50919050565b601f82111561161157600081815260208120601f850160051c810160208610156115ee5750805b601f850160051c820191505b8181101561160d578281556001016115fa565b5050505b505050565b815167ffffffffffffffff811115611630576116306110ba565b6116448161163e845461158d565b846115c7565b602080601f83116001811461167957600084156116615750858301515b600019600386901b1c1916600185901b17855561160d565b600085815260208120601f198616915b828110156116a857888601518255948401946001909101908401611689565b50858210156116c65787850151600019600388901b60f8161c191681555b5050505050600190811b01905550565b6000600182016116f657634e487b7160e01b600052601160045260246000fd5b5060010190565b60006020828403121561170f57600080fd5b815167ffffffffffffffff81111561172657600080fd5b8201601f8101841361173757600080fd5b805161174561118482611101565b81815285602083850101111561175a57600080fd5b61176b8260208301602086016112c2565b9594505050505056fea264697066735822122031fa676fb6b0cddf5278e7e27b171189d8ba1a0309559dd2affcc140d2bbc45a64736f6c63430008140033a264697066735822122021aeebfaa21a109424674a169234c85483cccd4fe4c22537f7a5a3e2cd9cade964736f6c63430008140033",
    "linkReferences": {}
  },
  "methodIdentifiers": {
    "consumerDashboardAddress(uint256)": "51c9081f",
    "consumers(address)": "0bf53668",
    "createDashboard()": "042b1e6c",
    "getDashboardAddress()": "03e82d46",
    "length()": "1f7b6d32",
    "setDisputeResolutionCenter(address)": "83bcb556",
    "setProtocolWalletGen(address)": "c342bf73"
  },
  "id": 1
}