{
  "abi": [
    {
      "inputs": [
        {
          "internalType": "enum Randomness.RandomnessSource",
          "name": "source",
          "type": "uint8"
        },
        {
          "internalType": "address",
          "name": "_disputeResolutionCenter",
          "type": "address"
        }
      ],
      "stateMutability": "payable",
      "type": "constructor"
    },
    {
      "inputs": [
        {
          "internalType": "address",
          "name": "have",
          "type": "address"
        },
        {
          "internalType": "address",
          "name": "want",
          "type": "address"
        }
      ],
      "name": "OnlyRandomnessPrecompileCanFulfill",
      "type": "error"
    },
    {
      "inputs": [],
      "name": "FULFILLMENT_GAS_LIMIT",
      "outputs": [
        {
          "internalType": "uint64",
          "name": "",
          "type": "uint64"
        }
      ],
      "stateMutability": "view",
      "type": "function"
    },
    {
      "inputs": [],
      "name": "MAX_PARTICIPANTS",
      "outputs": [
        {
          "internalType": "uint256",
          "name": "",
          "type": "uint256"
        }
      ],
      "stateMutability": "view",
      "type": "function"
    },
    {
      "inputs": [],
      "name": "MIN_FEE",
      "outputs": [
        {
          "internalType": "uint256",
          "name": "",
          "type": "uint256"
        }
      ],
      "stateMutability": "view",
      "type": "function"
    },
    {
      "inputs": [],
      "name": "MIN_PARTICIPANTS",
      "outputs": [
        {
          "internalType": "uint256",
          "name": "",
          "type": "uint256"
        }
      ],
      "stateMutability": "view",
      "type": "function"
    },
    {
      "inputs": [],
      "name": "NUM_WINNERS",
      "outputs": [
        {
          "internalType": "uint8",
          "name": "",
          "type": "uint8"
        }
      ],
      "stateMutability": "view",
      "type": "function"
    },
    {
      "inputs": [],
      "name": "SALT_PREFIX",
      "outputs": [
        {
          "internalType": "bytes32",
          "name": "",
          "type": "bytes32"
        }
      ],
      "stateMutability": "view",
      "type": "function"
    },
    {
      "inputs": [],
      "name": "VRF_BLOCKS_DELAY",
      "outputs": [
        {
          "internalType": "uint32",
          "name": "",
          "type": "uint32"
        }
      ],
      "stateMutability": "view",
      "type": "function"
    },
    {
      "inputs": [],
      "name": "fulfillRequest",
      "outputs": [],
      "stateMutability": "nonpayable",
      "type": "function"
    },
    {
      "inputs": [],
      "name": "globalRequestCount",
      "outputs": [
        {
          "internalType": "uint256",
          "name": "",
          "type": "uint256"
        }
      ],
      "stateMutability": "view",
      "type": "function"
    },
    {
      "inputs": [],
      "name": "jackpot",
      "outputs": [
        {
          "internalType": "uint256",
          "name": "",
          "type": "uint256"
        }
      ],
      "stateMutability": "view",
      "type": "function"
    },
    {
      "inputs": [
        {
          "internalType": "uint256",
          "name": "",
          "type": "uint256"
        }
      ],
      "name": "participants",
      "outputs": [
        {
          "internalType": "address",
          "name": "",
          "type": "address"
        }
      ],
      "stateMutability": "view",
      "type": "function"
    },
    {
      "inputs": [],
      "name": "participate",
      "outputs": [],
      "stateMutability": "payable",
      "type": "function"
    },
    {
      "inputs": [],
      "name": "randomness",
      "outputs": [
        {
          "internalType": "contract Randomness",
          "name": "",
          "type": "address"
        }
      ],
      "stateMutability": "view",
      "type": "function"
    },
    {
      "inputs": [
        {
          "internalType": "uint256",
          "name": "requestId",
          "type": "uint256"
        },
        {
          "internalType": "uint256[]",
          "name": "randomWords",
          "type": "uint256[]"
        }
      ],
      "name": "rawFulfillRandomWords",
      "outputs": [],
      "stateMutability": "nonpayable",
      "type": "function"
    },
    {
      "inputs": [],
      "name": "requestId",
      "outputs": [
        {
          "internalType": "uint256",
          "name": "",
          "type": "uint256"
        }
      ],
      "stateMutability": "view",
      "type": "function"
    },
    {
      "inputs": [],
      "name": "startLottery",
      "outputs": [],
      "stateMutability": "payable",
      "type": "function"
    },
    {
      "inputs": [
        {
          "internalType": "uint256",
          "name": "",
          "type": "uint256"
        }
      ],
      "name": "votes",
      "outputs": [
        {
          "internalType": "uint256",
          "name": "",
          "type": "uint256"
        }
      ],
      "stateMutability": "view",
      "type": "function"
    }
  ],
  "bytecode": {
    "object": "0x608060405260008054600164ffffffff0160a01b0319167502000000000000000000000000000000000000000809179055600180556103e860025560038054620186a06001600160401b031990911681179091556200006390633b9aca00620001ef565b6001600160401b03166004557f6d795f64656d6f5f73616c745f6368616e67655f6d65000000000000000000006005556040516200126338038062001263833981016040819052620000b59162000229565b60008060009054906101000a90046001600160a01b03166001600160a01b031663fb7cfdd76040518163ffffffff1660e01b8152600401602060405180830381865afa1580156200010a573d6000803e3d6000fd5b505050506040513d601f19601f8201168201806040525081019062000130919062000276565b905080341015620001795760405162461bcd60e51b815260206004820152600f60248201526e4465706f73697420746f6f204c6f7760881b604482015260640160405180910390fd5b600f805484919060ff1916600183818111156200019a576200019a62000290565b021790555050600c8054336001600160a01b03199182161790915560006006819055600b8190556001600160401b03600755600e55600d80549091166001600160a01b039290921691909117905550620002a6565b6001600160401b038181168382160280821691908281146200022157634e487b7160e01b600052601160045260246000fd5b505092915050565b600080604083850312156200023d57600080fd5b8251600281106200024d57600080fd5b60208401519092506001600160a01b03811681146200026b57600080fd5b809150509250929050565b6000602082840312156200028957600080fd5b5051919050565b634e487b7160e01b600052602160045260246000fd5b610fad80620002b66000396000f3fe6080604052600436106100fd5760003560e01c80633a984bc51161009557806376c7a3c71161006457806376c7a3c7146102745780637d5a9c5a1461028a578063cad0338c146102c3578063d11711a2146102f6578063f3baf070146102fe57600080fd5b80633a984bc5146101ee57806351a8e298146102045780635df813301461023e5780636b31ee011461025e57600080fd5b80631fe543e3116100d15780631fe543e3146101605780632b855d191461018057806335c1d3491461019657806336013189146101ce57600080fd5b80626d6cae1461010257806314b859a91461012b578063160344e21461014257806317a472821461014a575b600080fd5b34801561010e57600080fd5b5061011860075481565b6040519081526020015b60405180910390f35b34801561013757600080fd5b50610140610314565b005b61014061037d565b34801561015657600080fd5b5061011860055481565b34801561016c57600080fd5b5061014061017b366004610d1b565b610820565b34801561018c57600080fd5b5061011860065481565b3480156101a257600080fd5b506101b66101b1366004610de5565b610856565b6040516001600160a01b039091168152602001610122565b3480156101da57600080fd5b506000546101b6906001600160a01b031681565b3480156101fa57600080fd5b5061011860015481565b34801561021057600080fd5b506003546102259067ffffffffffffffff1681565b60405167ffffffffffffffff9091168152602001610122565b34801561024a57600080fd5b50610118610259366004610de5565b610880565b34801561026a57600080fd5b50610118600b5481565b34801561028057600080fd5b5061011860045481565b34801561029657600080fd5b506000546102ae90600160a81b900463ffffffff1681565b60405163ffffffff9091168152602001610122565b3480156102cf57600080fd5b506000546102e490600160a01b900460ff1681565b60405160ff9091168152602001610122565b6101406108a1565b34801561030a57600080fd5b5061011860025481565b600054600754604051639a91eb0d60e01b81526001600160a01b0390921691639a91eb0d916103499160040190815260200190565b600060405180830381600087803b15801561036357600080fd5b505af1158015610377573d6000803e3d6000fd5b50505050565b600c546001600160a01b0316331461039457600080fd5b600d546001600160a01b03166103f15760405162461bcd60e51b815260206004820152601f60248201527f446973707574655265736f6c7574696f6e43656e746572206e6f74207365740060448201526064015b60405180910390fd5b6000805460075460405163d8a4676f60e01b81526001600160a01b039092169163d8a4676f916104279160040190815260200190565b602060405180830381865afa158015610444573d6000803e3d6000fd5b505050506040513d601f19601f820116820180604052508101906104689190610e14565b600381111561047957610479610dfe565b146104c25760405162461bcd60e51b815260206004820152601960248201527814995c5d595cdd08185b1c9958591e481a5b9a5d1a585d1959603a1b60448201526064016103e8565b60015460085410156105165760405162461bcd60e51b815260206004820152601760248201527f4e6f7420656e6f756768207061727469636970616e747300000000000000000060448201526064016103e8565b600254600854106105615760405162461bcd60e51b8152602060048201526015602482015274546f6f206d616e79207061727469636970616e747360581b60448201526064016103e8565b60045434908110156105a65760405162461bcd60e51b815260206004820152600e60248201526d4e6f7420656e6f7567682066656560901b60448201526064016103e8565b60008060009054906101000a90046001600160a01b03166001600160a01b031663fb7cfdd76040518163ffffffff1660e01b8152600401602060405180830381865afa1580156105fa573d6000803e3d6000fd5b505050506040513d601f19601f8201168201806040525081019061061e9190610e3c565b905080600b5461062e9190610e6b565b47101561066f5760405162461bcd60e51b815260206004820152600f60248201526e4465706f73697420746f6f206c6f7760881b60448201526064016103e8565b6000600f5460ff16600181111561068857610688610dfe565b036107805760008054600354600680546001600160a01b0390931693639478430c933393889367ffffffffffffffff909116926106c483610e84565b9091555060055460005460405160e088901b6001600160e01b03191681526001600160a01b039096166004870152602486019490945267ffffffffffffffff9092166044850152186064830152600160a01b810460ff166084830152600160a81b900463ffffffff1660a482015260c4015b6020604051808303816000875af1158015610755573d6000803e3d6000fd5b505050506040513d601f19601f820116820180604052508101906107799190610e3c565b6007555050565b60008054600354600680546001600160a01b03909316936333c14a63933393889367ffffffffffffffff909116926107b783610e84565b909155506005546000546040516001600160e01b031960e089901b1681526001600160a01b039096166004870152602486019490945267ffffffffffffffff909216604485015218606483015260ff600160a01b90910416608482015260a401610736565b5050565b336108091461084c5760405163c68806f560e01b815233600482015261080960248201526044016103e8565b61081c8282610a8e565b6008818154811061086657600080fd5b6000918252602090912001546001600160a01b0316905081565b6009818154811061089057600080fd5b600091825260209091200154905081565b6000805460075460405163d8a4676f60e01b81526001600160a01b039092169163d8a4676f916108d79160040190815260200190565b602060405180830381865afa1580156108f4573d6000803e3d6000fd5b505050506040513d601f19601f820116820180604052508101906109189190610e14565b600381111561092957610929610dfe565b146109725760405162461bcd60e51b815260206004820152601960248201527814995c5d595cdd08185b1c9958591e481a5b9a5d1a585d1959603a1b60448201526064016103e8565b34151580610981575034600114155b156109ce5760405162461bcd60e51b815260206004820152601960248201527f496e76616c69642070617274696369706174696f6e206665650000000000000060448201526064016103e8565b6008805460018181019092557ff3f7a9fe364faab93b216da50a3214154f22a0a2b415b23a84c8169e8b636ee30180546001600160a01b031916331790556009805491820181556000908152347f6e1540171b6c0c960b71a7020d9f60077f6af931a8bbf590da0223dacf75c7af90920191909155805460ff600160a01b90910416906014610a5c83610e9d565b91906101000a81548160ff021916908360ff1602179055505034600b6000828254610a879190610e6b565b9091555050565b61081c81600d546001600160a01b0316610aea5760405162461bcd60e51b815260206004820152601f60248201527f446973707574655265736f6c7574696f6e43656e746572206e6f74207365740060448201526064016103e8565b60008054600590610b0690600160a01b900460ff166001610ebc565b610b109190610ef5565b60ff16905060005b818163ffffffff161015610bd7576000838263ffffffff1681518110610b4057610b40610f17565b60200260200101519050600060088054905082610b5d9190610f2d565b905060088181548110610b7257610b72610f17565b600091825260209091200180546001600160a01b03191690556009805482908110610b9f57610b9f610f17565b9060005260206000200154600b6000828254610bbb9190610f41565b9250508190555050508080610bcf90610f54565b915050610b18565b506001600b5410610bec576001600a55610bf2565b6002600a555b600a54600003610c3b5760405162461bcd60e51b8152602060048201526014602482015273111958da5cda5bdb88139bdd08155c19185d195960621b60448201526064016103e8565b600d54600a546001600160a01b0390911690600103610cc657600e546040516365c4d52b60e01b8152600160048201526000602482015260448101919091526001600160a01b038216906365c4d52b906064015b600060405180830381600087803b158015610ca957600080fd5b505af1158015610cbd573d6000803e3d6000fd5b50505050505050565b600e546040516365c4d52b60e01b8152600060048201526001602482015260448101919091526001600160a01b038216906365c4d52b90606401610c8f565b634e487b7160e01b600052604160045260246000fd5b60008060408385031215610d2e57600080fd5b8235915060208084013567ffffffffffffffff80821115610d4e57600080fd5b818601915086601f830112610d6257600080fd5b813581811115610d7457610d74610d05565b8060051b604051601f19603f83011681018181108582111715610d9957610d99610d05565b604052918252848201925083810185019189831115610db757600080fd5b938501935b82851015610dd557843584529385019392850192610dbc565b8096505050505050509250929050565b600060208284031215610df757600080fd5b5035919050565b634e487b7160e01b600052602160045260246000fd5b600060208284031215610e2657600080fd5b815160048110610e3557600080fd5b9392505050565b600060208284031215610e4e57600080fd5b5051919050565b634e487b7160e01b600052601160045260246000fd5b80820180821115610e7e57610e7e610e55565b92915050565b600060018201610e9657610e96610e55565b5060010190565b600060ff821660ff8103610eb357610eb3610e55565b60010192915050565b60ff8181168382160290811690818114610ed857610ed8610e55565b5092915050565b634e487b7160e01b600052601260045260246000fd5b600060ff831680610f0857610f08610edf565b8060ff84160491505092915050565b634e487b7160e01b600052603260045260246000fd5b600082610f3c57610f3c610edf565b500690565b81810381811115610e7e57610e7e610e55565b600063ffffffff808316818103610f6d57610f6d610e55565b600101939250505056fea2646970667358221220858a76265fcd0ffc177039a3eaabc5cb9ecfb2fe9389a315674a9e94bf3eae8b64736f6c63430008140033",
    "linkReferences": {}
  },
  "methodIdentifiers": {
    "FULFILLMENT_GAS_LIMIT()": "51a8e298",
    "MAX_PARTICIPANTS()": "f3baf070",
    "MIN_FEE()": "76c7a3c7",
    "MIN_PARTICIPANTS()": "3a984bc5",
    "NUM_WINNERS()": "cad0338c",
    "SALT_PREFIX()": "17a47282",
    "VRF_BLOCKS_DELAY()": "7d5a9c5a",
    "fulfillRequest()": "14b859a9",
    "globalRequestCount()": "2b855d19",
    "jackpot()": "6b31ee01",
    "participants(uint256)": "35c1d349",
    "participate()": "d11711a2",
    "randomness()": "36013189",
    "rawFulfillRandomWords(uint256,uint256[])": "1fe543e3",
    "requestId()": "006d6cae",
    "startLottery()": "160344e2",
    "votes(uint256)": "5df81330"
  },
  "id": 4
}